{
  "contractName": "HodlerFactory",
  "abi": [
    {
      "inputs": [
        {
          "internalType": "uint256",
          "name": "",
          "type": "uint256"
        }
      ],
      "name": "allHodlers",
      "outputs": [
        {
          "internalType": "address",
          "name": "",
          "type": "address"
        }
      ],
      "stateMutability": "view",
      "type": "function",
      "constant": true
    },
    {
      "inputs": [
        {
          "internalType": "address",
          "name": "",
          "type": "address"
        },
        {
          "internalType": "uint256",
          "name": "",
          "type": "uint256"
        }
      ],
      "name": "hodler",
      "outputs": [
        {
          "internalType": "address",
          "name": "",
          "type": "address"
        }
      ],
      "stateMutability": "view",
      "type": "function",
      "constant": true
    },
    {
      "inputs": [
        {
          "internalType": "address",
          "name": "",
          "type": "address"
        }
      ],
      "name": "index",
      "outputs": [
        {
          "internalType": "uint256",
          "name": "",
          "type": "uint256"
        }
      ],
      "stateMutability": "view",
      "type": "function",
      "constant": true
    },
    {
      "inputs": [],
      "name": "allHodlersLength",
      "outputs": [
        {
          "internalType": "uint256",
          "name": "",
          "type": "uint256"
        }
      ],
      "stateMutability": "view",
      "type": "function",
      "constant": true
    },
    {
      "inputs": [
        {
          "internalType": "address",
          "name": "asset",
          "type": "address"
        }
      ],
      "name": "createHodler",
      "outputs": [
        {
          "internalType": "address",
          "name": "",
          "type": "address"
        }
      ],
      "stateMutability": "nonpayable",
      "type": "function"
    }
  ],
  "bytecode": "0x608060405234801561001057600080fd5b506126d4806100206000396000f3fe608060405234801561001057600080fd5b50600436106100575760003560e01c806318def8ef1461005c578063858af592146100b45780639b957b741461010c578063aca83eef1461012a578063f682922814610198575b600080fd5b61009e6004803603602081101561007257600080fd5b81019080803573ffffffffffffffffffffffffffffffffffffffff169060200190929190505050610210565b6040518082815260200191505060405180910390f35b6100e0600480360360208110156100ca57600080fd5b8101908080359060200190929190505050610228565b604051808273ffffffffffffffffffffffffffffffffffffffff16815260200191505060405180910390f35b610114610267565b6040518082815260200191505060405180910390f35b61016c6004803603602081101561014057600080fd5b81019080803573ffffffffffffffffffffffffffffffffffffffff169060200190929190505050610274565b604051808273ffffffffffffffffffffffffffffffffffffffff16815260200191505060405180910390f35b6101e4600480360360408110156101ae57600080fd5b81019080803573ffffffffffffffffffffffffffffffffffffffff169060200190929190803590602001909291905050506106f5565b604051808273ffffffffffffffffffffffffffffffffffffffff16815260200191505060405180910390f35b60016020528060005260406000206000915090505481565b6002818154811061023857600080fd5b906000526020600020016000915054906101000a900473ffffffffffffffffffffffffffffffffffffffff1681565b6000600280549050905090565b60008073ffffffffffffffffffffffffffffffffffffffff168273ffffffffffffffffffffffffffffffffffffffff161415610318576040517f08c379a000000000000000000000000000000000000000000000000000000000815260040180806020018281038252601f8152602001807f486f646c6572466163746f72793a207a65726f20617373657420696e7075740081525060200191505060405180910390fd5b6000600160008473ffffffffffffffffffffffffffffffffffffffff1673ffffffffffffffffffffffffffffffffffffffff16815260200190815260200160002054905060018060008573ffffffffffffffffffffffffffffffffffffffff1673ffffffffffffffffffffffffffffffffffffffff1681526020019081526020016000206000828254019250508190555060008111156105185760008060008573ffffffffffffffffffffffffffffffffffffffff1673ffffffffffffffffffffffffffffffffffffffff168152602001908152602001600020600183038154811061040057fe5b9060005260206000200160009054906101000a900473ffffffffffffffffffffffffffffffffffffffff169050600081905060008173ffffffffffffffffffffffffffffffffffffffff16631f2698ab6040518163ffffffff1660e01b815260040160206040518083038186803b15801561047a57600080fd5b505afa15801561048e573d6000803e3d6000fd5b505050506040513d60208110156104a457600080fd5b810190808051906020019092919050505090506001151581151514610514576040517f08c379a000000000000000000000000000000000000000000000000000000000815260040180806020018281038252602c815260200180612673602c913960400191505060405180910390fd5b5050505b600060405161052690610743565b604051809103906000f080158015610542573d6000803e3d6000fd5b5090508073ffffffffffffffffffffffffffffffffffffffff16634ec81af18568056bc75e2d63100000605060786040518563ffffffff1660e01b8152600401808573ffffffffffffffffffffffffffffffffffffffff168152602001848152602001838152602001828152602001945050505050600060405180830381600087803b1580156105d157600080fd5b505af11580156105e5573d6000803e3d6000fd5b505050506000808573ffffffffffffffffffffffffffffffffffffffff1673ffffffffffffffffffffffffffffffffffffffff168152602001908152602001600020819080600181540180825580915050600190039060005260206000200160009091909190916101000a81548173ffffffffffffffffffffffffffffffffffffffff021916908373ffffffffffffffffffffffffffffffffffffffff1602179055506002819080600181540180825580915050600190039060005260206000200160009091909190916101000a81548173ffffffffffffffffffffffffffffffffffffffff021916908373ffffffffffffffffffffffffffffffffffffffff1602179055508092505050919050565b6000602052816000526040600020818154811061071157600080fd5b906000526020600020016000915091509054906101000a900473ffffffffffffffffffffffffffffffffffffffff1681565b611f22806107518339019056fe60806040526001600e5534801561001557600080fd5b50611efd806100256000396000f3fe608060405234801561001057600080fd5b50600436106101215760003560e01c8063431b0a5a116100ad578063834ee41711610071578063834ee4171461043a57806387fba5221461045857806395d89b41146104765780639ff9c96f146104f9578063b6b55f251461051757610121565b8063431b0a5a146102c8578063455fd623146103205780634ab49c1e1461033e5780634ec81af11461038057806370a08231146103e257610121565b8063196667e4116100f4578063196667e4146102075780631f2698ab146102255780632e1a7d4d14610245578063313ce5671461027357806338d52e0f1461029457610121565b806306fdde031461012657806312fa6feb146101a9578063158ef93e146101c957806318160ddd146101e9575b600080fd5b61012e610545565b6040518080602001828103825283818151815260200191508051906020019080838360005b8381101561016e578082015181840152602081019050610153565b50505050905090810190601f16801561019b5780820380516001836020036101000a031916815260200191505b509250505060405180910390f35b6101b16105e3565b60405180821515815260200191505060405180910390f35b6101d16105f6565b60405180821515815260200191505060405180910390f35b6101f1610609565b6040518082815260200191505060405180910390f35b61020f61060f565b6040518082815260200191505060405180910390f35b61022d610615565b60405180821515815260200191505060405180910390f35b6102716004803603602081101561025b57600080fd5b8101908080359060200190929190505050610628565b005b61027b610997565b604051808260ff16815260200191505060405180910390f35b61029c6109aa565b604051808273ffffffffffffffffffffffffffffffffffffffff16815260200191505060405180910390f35b61030a600480360360208110156102de57600080fd5b81019080803573ffffffffffffffffffffffffffffffffffffffff1690602001909291905050506109d0565b6040518082815260200191505060405180910390f35b6103286109e8565b6040518082815260200191505060405180910390f35b61036a6004803603602081101561035457600080fd5b81019080803590602001909291905050506109ee565b6040518082815260200191505060405180910390f35b6103e06004803603608081101561039657600080fd5b81019080803573ffffffffffffffffffffffffffffffffffffffff169060200190929190803590602001909291908035906020019092919080359060200190929190505050610b17565b005b610424600480360360208110156103f857600080fd5b81019080803573ffffffffffffffffffffffffffffffffffffffff16906020019092919050505061102d565b6040518082815260200191505060405180910390f35b610442611045565b6040518082815260200191505060405180910390f35b61046061104b565b6040518082815260200191505060405180910390f35b61047e611051565b6040518080602001828103825283818151815260200191508051906020019080838360005b838110156104be5780820151818401526020810190506104a3565b50505050905090810190601f1680156104eb5780820380516001836020036101000a031916815260200191505b509250505060405180910390f35b6105016110ef565b6040518082815260200191505060405180910390f35b6105436004803603602081101561052d57600080fd5b81019080803590602001909291905050506110f5565b005b60008054600181600116156101000203166002900480601f0160208091040260200160405190810160405280929190818152602001828054600181600116156101000203166002900480156105db5780601f106105b0576101008083540402835291602001916105db565b820191906000526020600020905b8154815290600101906020018083116105be57829003601f168201915b505050505081565b600c60009054906101000a900460ff1681565b600660009054906101000a900460ff1681565b60035481565b60075481565b600a60009054906101000a900460ff1681565b6001600e54146106a0576040517f08c379a000000000000000000000000000000000000000000000000000000000815260040180806020018281038252600e8152602001807f486f646c65723a204c4f434b454400000000000000000000000000000000000081525060200191505060405180910390fd5b6000600e8190555060008111610701576040517f08c379a0000000000000000000000000000000000000000000000000000000008152600401808060200182810382526024815260200180611e2f6024913960400191505060405180910390fd5b60001515600c60009054906101000a900460ff1615151461078a576040517f08c379a000000000000000000000000000000000000000000000000000000000815260040180806020018281038252601b8152602001807f486f646c65725f77697468647261773a2067616d6520656e646564000000000081525060200191505060405180910390fd5b6003546107a2826004546113b290919063ffffffff16565b14156107c4576001600c60006101000a81548160ff0219169083151502179055505b600060011515600a60009054906101000a900460ff161515146107f3578190506107ee3383611435565b6108ef565b6107fc826109ee565b905060008111610857576040517f08c379a0000000000000000000000000000000000000000000000000000000008152600401808060200182810382526024815260200180611dda6024913960400191505060405180910390fd5b610861338361154f565b6000600560003373ffffffffffffffffffffffffffffffffffffffff1673ffffffffffffffffffffffffffffffffffffffff1681526020019081526020016000205414156108ee5742600d60003373ffffffffffffffffffffffffffffffffffffffff1673ffffffffffffffffffffffffffffffffffffffff168152602001908152602001600020819055505b5b61091c600660019054906101000a900473ffffffffffffffffffffffffffffffffffffffff163383611669565b3373ffffffffffffffffffffffffffffffffffffffff167fb97e775637eca8401af330efee0810af7079bafae27761741e09caa14db8d2728284600a60009054906101000a900460ff16604051808481526020018381526020018215158152602001935050505060405180910390a2506001600e8190555050565b600260009054906101000a900460ff1681565b600660019054906101000a900473ffffffffffffffffffffffffffffffffffffffff1681565b600d6020528060005260406000206000915090505481565b60045481565b600080610a0860085460095461182f90919063ffffffff16565b90506000610a49600854610a3b600354610a2d600454876118b290919063ffffffff16565b61194790919063ffffffff16565b6113b290919063ffffffff16565b90506000610a62856004546113b290919063ffffffff16565b90506000610aa1600854610a93600354610a8586896118b290919063ffffffff16565b61194790919063ffffffff16565b6113b290919063ffffffff16565b90506000610add84610acf6002610ac1888761182f90919063ffffffff16565b61194790919063ffffffff16565b6113b290919063ffffffff16565b90506000610b076064610af98a856118b290919063ffffffff16565b61194790919063ffffffff16565b9050809650505050505050919050565b60001515600660009054906101000a900460ff16151514610b83576040517f08c379a0000000000000000000000000000000000000000000000000000000008152600401808060200182810382526026815260200180611e536026913960400191505060405180910390fd5b6001600660006101000a81548160ff02191690831515021790555083600660016101000a81548173ffffffffffffffffffffffffffffffffffffffff021916908373ffffffffffffffffffffffffffffffffffffffff1602179055508260078190555081600881905550806009819055506060600660019054906101000a900473ffffffffffffffffffffffffffffffffffffffff1673ffffffffffffffffffffffffffffffffffffffff166306fdde036040518163ffffffff1660e01b815260040160006040518083038186803b158015610c5e57600080fd5b505afa158015610c72573d6000803e3d6000fd5b505050506040513d6000823e3d601f19601f820116820180604052506020811015610c9c57600080fd5b8101908080516040519392919084640100000000821115610cbc57600080fd5b83820191506020820185811115610cd257600080fd5b8251866001820283011164010000000082111715610cef57600080fd5b8083526020830192505050908051906020019080838360005b83811015610d23578082015181840152602081019050610d08565b50505050905090810190601f168015610d505780820380516001836020036101000a031916815260200191505b506040525050509050610d986040518060400160405280600781526020017f486f646c6572200000000000000000000000000000000000000000000000000081525082611967565b60009080519060200190610dad929190611d2e565b506060600660019054906101000a900473ffffffffffffffffffffffffffffffffffffffff1673ffffffffffffffffffffffffffffffffffffffff166395d89b416040518163ffffffff1660e01b815260040160006040518083038186803b158015610e1857600080fd5b505afa158015610e2c573d6000803e3d6000fd5b505050506040513d6000823e3d601f19601f820116820180604052506020811015610e5657600080fd5b8101908080516040519392919084640100000000821115610e7657600080fd5b83820191506020820185811115610e8c57600080fd5b8251866001820283011164010000000082111715610ea957600080fd5b8083526020830192505050908051906020019080838360005b83811015610edd578082015181840152602081019050610ec2565b50505050905090810190601f168015610f0a5780820380516001836020036101000a031916815260200191505b506040525050509050610f526040518060400160405280600481526020017f686f646c0000000000000000000000000000000000000000000000000000000081525082611967565b60019080519060200190610f67929190611d2e565b50600660019054906101000a900473ffffffffffffffffffffffffffffffffffffffff1673ffffffffffffffffffffffffffffffffffffffff1663313ce5676040518163ffffffff1660e01b815260040160206040518083038186803b158015610fd057600080fd5b505afa158015610fe4573d6000803e3d6000fd5b505050506040513d6020811015610ffa57600080fd5b8101908080519060200190929190505050600260006101000a81548160ff021916908360ff160217905550505050505050565b60056020528060005260406000206000915090505481565b600b5481565b60085481565b60018054600181600116156101000203166002900480601f0160208091040260200160405190810160405280929190818152602001828054600181600116156101000203166002900480156110e75780601f106110bc576101008083540402835291602001916110e7565b820191906000526020600020905b8154815290600101906020018083116110ca57829003601f168201915b505050505081565b60095481565b6001600e541461116d576040517f08c379a000000000000000000000000000000000000000000000000000000000815260040180806020018281038252600e8152602001807f486f646c65723a204c4f434b454400000000000000000000000000000000000081525060200191505060405180910390fd5b6000600e81905550600081116111ce576040517f08c379a0000000000000000000000000000000000000000000000000000000008152600401808060200182810382526022815260200180611e796022913960400191505060405180910390fd5b60001515600c60009054906101000a900460ff16151514611257576040517f08c379a000000000000000000000000000000000000000000000000000000000815260040180806020018281038252601a8152602001807f486f646c65725f4465706f7369743a2067616d6520656e64656400000000000081525060200191505060405180910390fd5b60001515600a60009054906101000a900460ff161515146112e0576040517f08c379a000000000000000000000000000000000000000000000000000000000815260040180806020018281038252601c8152602001807f486f646c65725f4465706f7369743a2067616d6520737461727465640000000081525060200191505060405180910390fd5b6007546112f8826003546113b290919063ffffffff16565b1415611321576001600a60006101000a81548160ff02191690831515021790555042600b819055505b61134f600660019054906101000a900473ffffffffffffffffffffffffffffffffffffffff16333084611a2f565b6113593382611c14565b3373ffffffffffffffffffffffffffffffffffffffff167fe1fffcc4923d04b559f4d29a8bfc6cda04eb5b0d3c460751c2402c5c5cc9109c826040518082815260200191505060405180910390a26001600e8190555050565b600082828401915081101561142f576040517f08c379a00000000000000000000000000000000000000000000000000000000081526004018080602001828103825260148152602001807f64732d6d6174682d6164642d6f766572666c6f7700000000000000000000000081525060200191505060405180910390fd5b92915050565b61148781600560008573ffffffffffffffffffffffffffffffffffffffff1673ffffffffffffffffffffffffffffffffffffffff1681526020019081526020016000205461182f90919063ffffffff16565b600560008473ffffffffffffffffffffffffffffffffffffffff1673ffffffffffffffffffffffffffffffffffffffff168152602001908152602001600020819055506114df8160035461182f90919063ffffffff16565b600381905550600073ffffffffffffffffffffffffffffffffffffffff168273ffffffffffffffffffffffffffffffffffffffff167fddf252ad1be2c89b69c2b068fc378daa952ba7f163c4a11628f55a4df523b3ef836040518082815260200191505060405180910390a35050565b6115a181600560008573ffffffffffffffffffffffffffffffffffffffff1673ffffffffffffffffffffffffffffffffffffffff1681526020019081526020016000205461182f90919063ffffffff16565b600560008473ffffffffffffffffffffffffffffffffffffffff1673ffffffffffffffffffffffffffffffffffffffff168152602001908152602001600020819055506115f9816004546113b290919063ffffffff16565b600481905550600073ffffffffffffffffffffffffffffffffffffffff168273ffffffffffffffffffffffffffffffffffffffff167fddf252ad1be2c89b69c2b068fc378daa952ba7f163c4a11628f55a4df523b3ef836040518082815260200191505060405180910390a35050565b600060608473ffffffffffffffffffffffffffffffffffffffff1663a9059cbb8585604051602401808373ffffffffffffffffffffffffffffffffffffffff168152602001828152602001925050506040516020818303038152906040529060e01b6020820180517bffffffffffffffffffffffffffffffffffffffffffffffffffffffff83818316178352505050506040518082805190602001908083835b6020831061172c5780518252602082019150602081019050602083039250611709565b6001836020036101000a0380198251168184511680821785525050505050509050019150506000604051808303816000865af19150503d806000811461178e576040519150601f19603f3d011682016040523d82523d6000602084013e611793565b606091505b50915091508180156117d357506000815114806117d257508080602001905160208110156117c057600080fd5b81019080805190602001909291905050505b5b611828576040517f08c379a000000000000000000000000000000000000000000000000000000000815260040180806020018281038252602d815260200180611e9b602d913960400191505060405180910390fd5b5050505050565b60008282840391508111156118ac576040517f08c379a00000000000000000000000000000000000000000000000000000000081526004018080602001828103825260158152602001807f64732d6d6174682d7375622d756e646572666c6f77000000000000000000000081525060200191505060405180910390fd5b92915050565b6000808214806118cf57508282838502925082816118cc57fe5b04145b611941576040517f08c379a00000000000000000000000000000000000000000000000000000000081526004018080602001828103825260148152602001807f64732d6d6174682d6d756c2d6f766572666c6f7700000000000000000000000081525060200191505060405180910390fd5b92915050565b600080821161195557600080fd5b81838161195e57fe5b04905092915050565b606082826040516020018083805190602001908083835b602083106119a1578051825260208201915060208101905060208303925061197e565b6001836020036101000a03801982511681845116808217855250505050505090500182805190602001908083835b602083106119f257805182526020820191506020810190506020830392506119cf565b6001836020036101000a03801982511681845116808217855250505050505090500192505050604051602081830303815290604052905092915050565b600060608573ffffffffffffffffffffffffffffffffffffffff166323b872dd868686604051602401808473ffffffffffffffffffffffffffffffffffffffff1681526020018373ffffffffffffffffffffffffffffffffffffffff16815260200182815260200193505050506040516020818303038152906040529060e01b6020820180517bffffffffffffffffffffffffffffffffffffffffffffffffffffffff83818316178352505050506040518082805190602001908083835b60208310611b105780518252602082019150602081019050602083039250611aed565b6001836020036101000a0380198251168184511680821785525050505050509050019150506000604051808303816000865af19150503d8060008114611b72576040519150601f19603f3d011682016040523d82523d6000602084013e611b77565b606091505b5091509150818015611bb75750600081511480611bb65750808060200190516020811015611ba457600080fd5b81019080805190602001909291905050505b5b611c0c576040517f08c379a0000000000000000000000000000000000000000000000000000000008152600401808060200182810382526031815260200180611dfe6031913960400191505060405180910390fd5b505050505050565b611c29816003546113b290919063ffffffff16565b600381905550611c8181600560008573ffffffffffffffffffffffffffffffffffffffff1673ffffffffffffffffffffffffffffffffffffffff168152602001908152602001600020546113b290919063ffffffff16565b600560008473ffffffffffffffffffffffffffffffffffffffff1673ffffffffffffffffffffffffffffffffffffffff168152602001908152602001600020819055508173ffffffffffffffffffffffffffffffffffffffff16600073ffffffffffffffffffffffffffffffffffffffff167fddf252ad1be2c89b69c2b068fc378daa952ba7f163c4a11628f55a4df523b3ef836040518082815260200191505060405180910390a35050565b828054600181600116156101000203166002900490600052602060002090601f016020900481019282611d645760008555611dab565b82601f10611d7d57805160ff1916838001178555611dab565b82800160010185558215611dab579182015b82811115611daa578251825591602001919060010190611d8f565b5b509050611db89190611dbc565b5090565b5b80821115611dd5576000816000905550600101611dbd565b509056fe486f646c65725f77697468647261773a207a65726f2061737365742077697468647261775472616e7366657248656c7065723a3a7472616e7366657246726f6d3a207472616e7366657246726f6d206661696c6564486f646c65725f77697468647261773a207a65726f20746f6b656e207769746864726177486f646c65725f696e697469616c697a653a20616c726561647920696e697469616c697a6564486f646c65725f4465706f7369743a207a65726f206173736574206465706f7369745472616e7366657248656c7065723a3a736166655472616e736665723a207472616e73666572206661696c6564a264697066735822122058a8012066081548f581d3bcd21816d3d6da491d9de9366321e08fa8dd7f98df64736f6c63430007040033486f646c6572466163746f72793a2070726576696f757320686f646c657220646964206e6f74207374617274a2646970667358221220c3255ae9734f0a4dc7a64afbc0ce863ebd186fe20ccc919ca28889bbc83dca7c64736f6c63430007040033",
  "immutableReferences": {},
  "source": "// SPDX-License-Identifier: GPL-3.0\npragma solidity =0.7.4;\n\nimport './Hodler.sol';\n\ncontract HodlerFactory {\n\n    mapping(address => address[]) public hodler;\n    mapping(address => uint256) public index;\n    address[] public allHodlers;\n \n    function allHodlersLength() external view returns (uint) {\n        return allHodlers.length;\n    }\n\n    function createHodler(address asset) public returns (address) {\n        require(asset != address(0), \"HodlerFactory: zero asset input\");\n        uint256 _index = index[asset];\n        index[asset] += 1;\n        if (_index > 0) {\n            address previous = hodler[asset][_index - 1];\n            Hodler _previous = Hodler(previous);\n            bool started = _previous.started();\n            require(started == true, \"HodlerFactory: previous hodler did not start\");\n        }\n        Hodler _hodler = new Hodler();\n        _hodler.initialize(asset, 10**20, 80, 120);\n        hodler[asset].push(address(_hodler));\n        allHodlers.push(address(_hodler));\n        return address(_hodler);\n    }\n}\n",
  "sourcePath": "/Users/Hodler_back/contracts/HodlerFactory.sol",
  "compiler": {
    "name": "solc",
    "version": "0.7.4+commit.3f05b770.Emscripten.clang"
  },
  "schemaVersion": "3.1.0",
  "updatedAt": "2021-01-19T13:54:09.925Z",
  "networkType": "ethereum",
  "devdoc": {
    "kind": "dev",
    "methods": {},
    "version": 1
  },
  "userdoc": {
    "kind": "user",
    "methods": {},
    "version": 1
  }
}